:020000040800F2
:1000000000500020213900085539000855390008F2
:10001000553900085539000855390008000000001E
:10002000000000000000000000000000553900083A
:1000300055390008000000005539000855390008FE
:100040005539000855390008553900085539000858
:100050005539000855390008553900085539000848
:100060005539000855390008553900085539000838
:100070005539000855390008553900085539000828
:100080005539000855390008553900086928000815
:100090006D28000855390008652800085539000802
:1000A00055390008553900085539000855390008F8
:1000B00055390008553900085539000855390008E8
:1000C00055390008553900085539000855390008D8
:1000D00055390008553900085539000855390008C8
:1000E000553900085539000855390008000000004E
:1000F0000000000000000000000000000000000000
:1001000000000000000000005FF808F110B5054C89
:10011000237833B9044B13B10448AFF300800123B3
:10012000237010BDCC01002000000000887D000875
:100130000C4B43B10C4810B50C49AFF300800C4890
:10014000036823B910BD0A48036833B97047094BE7
:10015000002BF7D0BDE810401847064B002BF5D018
:10016000184700BF00000000887D0008D001002073
:10017000C801002000000000154B002B08BF134BE6
:100180009D46A3F5803A00218B460F461348144A3A
:10019000121A05F0FEFF0F4B002B00D098470E4BB4
:1001A000002B00D098470020002104000D000D48CE
:1001B000002802D00C4803F0C0F905F09DFF200094
:1001C000290003F079F903F0B5F900BF0000080039
:1001D0000050002000000000AB340008CC010020DB
:1001E0000C1400203B3500080000000070470000A0
:1001F0000849094A0B78013BDBB20B702BB9137825
:1002000043F0080313700A230B70137843F00403C0
:1002100013707047500900206206002003681847D9
:1002200008B10B68036070477047000038B5B0F93B
:100230000030044601330D4604D13A2205490648F0
:1002400005F04EFD636815B1E268136038BD2269A0
:10025000FBE700BF067200084E72000808B50021D7
:100260000448FFF7E3FF044A137843F001031370D7
:1002700008BD00BF5409002062060020F8B50B4EEF
:100280000B4C0A4805F03CFA70B127686579304696
:10029000EDB26B1CDBB2637105F0CCF97855E379F4
:1002A000627913406371ECE7F8BD00BF00020020E3
:1002B0006005002010B504460C2105F08DFD204698
:1002C00010BD0000064A136801331360054B93F913
:1002D0000030002BBFBF044A13680133136070471E
:1002E0004C0500206306002050050020064A1368D4
:1002F00001331360054B93F90030002BBFBF044A54
:10030000136801331360704758050020630600200E
:100310005C05002070B5104C1048237813F00105DF
:1003200009D005F068FB0D4805F021FB23786FF339
:100330000003237070BD05F049FB094E306007488B
:1003400005F034FB3A223368B3FBF2F3054A13801D
:10035000237865F34103ECE762060020E402002005
:10036000100600204001002038B5054655F8043B32
:1003700004469B689847284602F0E6F9054623683C
:100380002046DB689847284638BD38B504460D46F8
:1003900005F0CAFC2946204602F0E7FFBDE83840D8
:1003A00005F0ECBC70B50C461546052831D8DFE8E1
:1003B00000F0030F303133200121FA26174805F0F1
:1003C0000BF806FB05F11648FFF7DFFF01210AE0F5
:1003D0000221FA26114804F0FFFF06FB05F1104840
:1003E000FFF7D3FF02210F4804F0F6FF06FB04F1EC
:1003F0000CE00021094804F0EFFF00210848FFF756
:10040000C4FF0021074804F0E7FF00210648FFF77A
:10041000BCFF70BD0121DCE70221CEE7780500209A
:10042000D0080020C4050020E8080020002341F681
:10043000573210B519481A4C03702370194B99891B
:10044000914212DC0122027041F65732198B91421F
:1004500013DC02780132027041F65732198891425A
:1004600013DC03780133037010BD46F2A8129142E9
:10047000C2BF02219A812170E6E746F2A81291429A
:10048000C2BF04211A832170E6E746F2A812914206
:10049000C2BF012121701A8010BD00BF610600207B
:1004A0006006002094060020124B1B78062B08D80B
:1004B000DFE803F01408040E1007120001220E4BAF
:1004C0001A70704708230C4A13700C4A1370704757
:1004D0000223F8E70923F6E70323F4E7074B1A782A
:1004E000092A03D1062204490A70E9E7082AE8D15B
:1004F0000522F8E7600600200607002038030020E8
:1005000010B5294C2378092B43D8DFE803F00547C1
:10051000474734433B434747FFF788FFFFF7C4FF94
:10052000224923480A888B89098BC3F56A530A44F8
:10053000022192FBF1F2183313441E4A9BB213803E
:100540001422B3FBF2F200781B4904280A60C4BFEE
:1005500052420A600868FA21184A194C1380194B54
:100560001B881A1892FBF1F21B1A93FBF1F32280FD
:10057000154A138010BD0022BDE810401146052029
:10058000FFF710BF192204201146FFF70BFF0023CD
:10059000237010BD192203201146F6E7084B0020F6
:1005A0001A88094B1988F0E70607002094060020F6
:1005B000600600205C0600201C0800205E0600206B
:1005C00004070020F00000206C0800200C2108B572
:1005D0004143034801F5C871FFF7D7FE08BD00BFCE
:1005E000700800202DE9F04F002201244FF006088A
:1005F00005254FF0040C03264FF0020E90F80590ED
:100600000379994558D0877AC179062F52D8DFE807
:1006100007F0040F1C22292E3C000768FB5C552BB9
:1006200001D18472C5720379013319400171E7E782
:100630000768FF5C4E2F02D180F80AE0F3E7552FE0
:10064000F1D0013B82720371EDE70768FF5C452F33
:10065000F7D18672E7E70768FF5C522FF1D180F887
:100660000AC0E0E70768FB5C85724372DBE7076856
:10067000FF5C3A2FE5D101330B408371437A80F858
:100680000A8083F036030372CDE7477AD0F800B0D2
:10069000013FFFB2477290F808A027B11BF8033062
:1006A00083EA0A03EFE787721BF803305345BAD198
:1006B0000473B8E78272B6E7BDE8F08F10B50C4856
:1006C00005F091F90B4C2368C01AB0F57A7F0EDB68
:1006D000074805F088F9084B084A1968206011603E
:1006E00000221A60064B074918681A60086010BD9E
:1006F0001C0700201C0300204C0500204C09002092
:10070000580500204809002010B5174805F06BF97E
:10071000164C2368C01A092819DD134805F063F93F
:100720002060134C2378012B12D004D3022B15D058
:10073000FF23237004E00F48FFF716FE0E4B1880CE
:1007400023780133DBB2022BC8BF0023237010BD16
:100750000A48FFF709FE084B9881F1E70848FFF7C0
:1007600003FE054B1883EBE71C0700203003002035
:100770003403002088060020940600207006002024
:100780007C0600202A4A10B514462A4B03F11001BA
:1007900053F8040B8B4242F8040BF9D11B78137009
:1007A000254B264A03F1100153F8040B8B4242F803
:1007B000040BF9D119889B78118093702049642229
:1007C000204805F0DBFC204B204A03F10C0153F8D4
:1007D000040B8B4242F8040BF9D11B7813701C4BAD
:1007E0001C4A03F1380153F8040B8B4242F8040B06
:1007F000F9D11B881380184B184A03F10C0153F8E8
:10080000040B8B4242F8040BF9D11B881449138066
:10081000144ADD3913681448C4F8DD305368C1F850
:10082000E1309368C1F8E530BDE8104001F0CABA84
:100830002D070020227100080E7100083E070020DD
:10084000907100085107002000710008B5070020D2
:1008500050710008C207002034710008FC07002016
:100860000A080020437100082C07002038B50D4607
:1008700001F024FAA0B101230C4C0D48217803FAB1
:1008800001F121EA0501FFF7D1FC0A4A237892F829
:1008900046200133DBB222B1092BC8BF00232370ED
:1008A00038BD1D2BC8BF0023F9E700BF240300207B
:1008B000EC010020F400002003460020D871587994
:1008C00030B5451C5D7155251C6801322554587999
:1008D0009C79D2B22040451C5D714E251C68255480
:1008E00058799C792040451C5D7145251C6825542C
:1008F00058799C792040451C5D7152251C6825540F
:100900005C7998791D680440601C58712A555879A3
:100910009C792040451C5D713A251C682554587906
:100920009C7920401C68451C5D71215458799C7944
:1009300020405871D879424081F036005040D8713B
:1009400030BD03465A79006810B5541C5C7181545F
:100950005A7998790240D8795A714840D87110BDB7
:1009600010B504460C4801F057FA98B1204601F042
:10097000A5F978B1094C0222F0212046FFF79CFF2F
:100980000D212046FFF7DDFFE1792046BDE810404C
:10099000FFF7D7BF10BD00BF2C070020800B002041
:1009A00000220D4B70B51A701C780A5D8AB142792D
:1009B0000568561C46710C5DAC544279847922401E
:1009C00042711A78541C1C708A5CC4796240C271EE
:1009D000EAE7C07970BD00BF6C06002010B58379CE
:1009E000C47919442140036881715B5C1144214042
:1009F0008171184610BD000070B5026883790C46FD
:100A0000D15C0546A22900F0F68021D8122966D0D3
:100A100012D8052900F06281112900F019810429FA
:100A200010D10322BA4B01211A700023B94A137066
:100A3000B94A1170B94A67E1A0295BD07CD8132963
:100A400000F05A8102222046FFF736FFFF2142E0E4
:100A5000A72924D8A52980F05981A32900F0E28094
:100A6000A429EFD1AE4BAF4D1B68092220462B6065
:100A7000FFF722FF29782046FFF763FF69782046B9
:100A8000FFF75FFFA9782046FFF75BFFE978204674
:100A9000FFF757FFA44B19682960C9B2CBE0A92919
:100AA00000F02281C0F0DB80F0290FD0F129C9D1FC
:100AB0000C222046FFF700FF9C492046FFF770FFFD
:100AC000E1792046BDE87040FFF73BBF0222204697
:100AD000FFF7F2FE0D212046FFF733FFF0E7022279
:100AE0002046FFF7E9FE924804F0BCFCC14301F048
:100AF0000F01F0E78F4E8B4D3388072220462B8065
:100B0000FFF7DAFE29782046FFF71BFF69782046B9
:100B1000FFF717FFB18920462980C9B2FFF711FFFF
:100B200069782046FFF70DFF318B20462980C9B236
:100B3000FFF707FF6978CEE70222A1212046FFF7E1
:100B4000BBFE0D212046FFF7FCFEE1792046FFF7B2
:100B5000F8FE002201212846FFF740FF714C0022D9
:100B6000207001212846FFF739FF00226070012123
:100B70002846FFF733FF01210022A0702846FFF727
:100B80002DFFE07026686C48002EACBF01210221C9
:100B900004F022FCFA21002EB8BF76427143674868
:100BA000FFF7F3FB002201212846FFF717FF002281
:100BB000207001212846FFF711FF002260700121FB
:100BC0002846FFF70BFF0121A07000222846FFF7FF
:100BD00005FFE07024685A48002CACBF01210221B7
:100BE00004F0FAFBFA21002CB8BF64426143554877
:100BF000FFF7CBFB70BD02222046FFF75DFE0D2103
:100C00002046FFF79EFEE1792046FFF79AFE284630
:100C100000220121FFF7E2FEBDE870404A4B188038
:100C2000FFF7D4BC494B3F4D1B68052220462B6083
:100C3000FFF742FE29782046FFF783FE69782046B9
:100C4000FFF77FFEA9782046FFF77BFEE97842E7B1
:100C500002222046FFF730FE3D4B19783BE73D4E20
:100C60001122A8212046FFF727FE2E4D316820468D
:100C70002960C9B2FFF765FE69782046FFF761FE7B
:100C8000A9782046FFF75DFEE9782046FFF759FE78
:100C9000716820462960C9B2FFF753FE6978204683
:100CA000FFF74FFEA9782046FFF74BFEE978204674
:100CB000FFF747FEB16820462960C9B2FFF741FE41
:100CC00069782046FFF73DFEA9782046FFF739FEF8
:100CD000E9782046FFF735FEF168DDE6022220467E
:100CE000FFF7EAFD0B4BB8E7094B1A78032A0CBF54
:100CF000012203221A7070BD174A137899064CBF5F
:100D00006FF3451343F02003137070BD70BD00BF37
:100D1000440100202008002045010020E8010020B7
:100D20004C090020180800204809002083710008A1
:100D3000240800209406002078050020D008002018
:100D4000C4050020E808002036030020100600201B
:100D5000540500203C0500206206002070B5037B8E
:100D600005460C4616461BB100230373FFF744FEED
:100D7000194800F0A3FF38B1AB7A2BB1EB7A013BF5
:100D8000DBB2EB7203B9AB722A796B799A4202D06B
:100D90002846FFF727FC237962799A420CD066B186
:100DA00021685A1C2271194401220C4801F01CF8D8
:100DB0002379A2791340237170BD094804F0B1FC76
:100DC0000028F9D023792268591C2171D15C04488C
:100DD00004F03FFCECE700BF640600202C07002075
:100DE00000020020F8B51D4D0C4695F900301C4E50
:100DF000002B0DDB2B7843F080032B7040F29F1308
:100E000058434FF4B47390FBF3F03060002418E0C3
:100E100040F6C463134F3A6853434FF4B472B3FBC4
:100E2000F2F3326893420ED3002205201146FFF7F9
:100E3000B9FA002301242A78336063F3C7123B60B8
:100E40002A702046F8BD1E2211461CB10320FFF770
:100E5000A9FADBE70420FFF7A5FAF2E76306002012
:100E6000200300205C05002008B51C4B1B881E2BAE
:100E70000ADD002205201146FFF794FA184A13787C
:100E800043F02003137008BDC3F10A010A2349B2DD
:100E9000C90091FBF3F1134B89B21B78042B0BBFF4
:100EA00001F10F02C1F10F0212B212B20CBFC1F177
:100EB0000F010F31282A09B20DDC2829A8BF2821EB
:100EC00022EAE27221EAE17192B289B20020BDE821
:100ED0000840FFF767BA2822F4E700BF400100206E
:100EE000630600204501002042F22733074A11889B
:100EF000994208DC9189994205DC108B9842CCBF5D
:100F00000020012070470020704700BF9406002099
:100F100044F62063074A1188994208DD9189994275
:100F200005DD108B9842D4BF0020012070470020BF
:100F3000704700BF9406002044F62063074A1188DA
:100F4000994208DC9189994205DC108B9842D4BF04
:100F50000020012070470120704700BF9406002048
:100F6000F8B5444804F03FFD434C2368C01A632899
:100F70003CDD404804F037FD404E20603378032BC1
:100F800075D8DFE803F002344C6B3D4F3D4C3E4DCD
:100F90003B880722A02120462B80FFF78DFC297873
:100FA0002046FFF7CEFC69782046FFF7CAFCB989D6
:100FB00020462980C9B2FFF7C4FC69782046FFF7B4
:100FC000C0FC398B20462980C9B2FFF7BAFC69788A
:100FD0002046FFF7B6FCE1792046FFF7B2FC3378F4
:100FE0000133DBB2032BC8BF00233370F8BD274B9E
:100FF000244C254D1B68A321052220462B60FFF7BA
:101000005BFC29782046FFF79CFC69782046FFF7B7
:1010100098FCA9782046FFF794FCE978D8E71C4BA8
:10102000184C1B68184D0922A42120462B60FFF79D
:1010300043FC29782046FFF784FC69782046FFF7B7
:1010400080FCA9782046FFF77CFCE9782046FFF772
:1010500078FC104B19682960C9B2D3E7094C052107
:1010600002222046FFF728FC0B4B1978B0E7FF233C
:101070003370B4E71C070020280300202C03002055
:1010800094060020800B0020180800201006002085
:101090004C0900204809002020080020F8B5AA4C7F
:1010A00023780E2B00F2BF80DFE813F00F001C0046
:1010B0003E0065009200C100D900E6002D016001EC
:1010C0007901AF01CC01E001F40101214FF4B470CA
:1010D000FFF788FE002800F00A8201239B4A237054
:1010E0001370F8BDFFF728FF002800F09C80002156
:1010F0005A20FFF777FE002800F0F9810022052032
:101100001146FFF74FF90020FFF760FA0223012292
:1011100023708E4B1A708E4A137843F002031370BB
:1011200064228C4B1A80F8BD8B4D8C4E2A883188F6
:101130000232914216DC864F3A7812F0020211D147
:1011400011460520FFF72EF95A20FFF73FFA032337
:10115000012223707D4B1A703B7843F002033B70F1
:101160000522DEE7FFF7CCF933882A88934280F224
:10117000BE812B80F8BD764E357815F0020540F023
:10118000B681764B714F1B88322B10DD5A20FFF74A
:101190001DFA2A4629460520FFF704F9337865F33E
:1011A000861333700423237001233B70F8BD2A4655
:1011B00029460520FFF7F6F82846FFF707FA02232D
:1011C000237001233B70337843F002033370C7E789
:1011D000624B5F4D1B88043B9BB2032B13D82B78CB
:1011E000580610D5002205201146FFF7DBF8002035
:1011F000FFF7ECF92B786FF386132B70052302228F
:101200002370524B36E0287810F0400440F06F8194
:1012100001214620FFF7E6FD002800F068812B78C9
:1012200043F040032B700F220020114650E1FFF7DE
:1012300083FE18B1FFF764F90623E0E7444C2178F8
:1012400011F0400140F053815A20FFF7CBFD0028F8
:1012500000F04D81237843F040032370F8BDFFF781
:1012600057FE002800F0978007232370384B1A7828
:101270006FF345121A70F8BD354D2B7899060FD4CF
:10128000FFF7F2FDFFF744FE10B32B78DA0644BFF8
:1012900043F008032B702B7843F004032B70F8BD48
:1012A000FFF72EF9294B1A78032A0CD108235A206C
:1012B0002370FFF78BF905222B7843F002032B7084
:1012C000244B1A80DEE70622227003221A70D9E727
:1012D000FFF732FE10B12B78DB06DCD4FFF704FEFB
:1012E00000B9F8BD2B785F0740F101811C4A03F07B
:1012F000FB0343F010032B7013780133DBB2137040
:10130000184A1360F8BD184B114D1B7813F0400FAD
:1013100010D00D23022223700C4B5A201A702B7808
:101320006FF386132B70FFF751F92B7843F002030C
:101330002B7015E72B789E0700F1C7800922032147
:101340002270024A1170F1E72008002045010020B8
:1013500063060020520900204201002040010020C5
:10136000540500203C05002062060020FFF7BCFD6C
:101370005F4D60B15F4B1B88043B9BB2012B06D8CD
:1013800001210020FFF72EFD002840F0A5802B78DA
:101390009B077FF548AFBDE8F840FFF7B1B8544D63
:1013A0002B782E4613F0400F1CD0534800F086FCDB
:1013B00018B12B7843F001032B703378D80740F134
:1013C0008480FFF79DF84B4B1B88043B9BB2072B97
:1013D00000F28D803378990700F189800B23042275
:1013E00023700EE701215020FFF7FCFC00287ED07F
:1013F0002B78AA2043F040032B70FFF7E7F82B78F7
:101400005A2243F002032B708BE644F620633B4ADA
:101410001188994212DD92899A420FDD0C23042231
:1014200003202370364B37491A70314A08801378ED
:1014300043F002036FF386131370F4E6BDE8F8403F
:10144000FFF712BD2A4B1B789A0750D40121462082
:10145000FFF7C8FC00284AD0062304222370284B3B
:101460001A70294A137843F0400339E6214B1B8850
:10147000153B9BB2082B8ED81D4B187810F002003C
:1014800089D10E23012223701D4B1A70BDE8F8404C
:10149000FFF79CB8164E357815F0400527D101218D
:1014A0006E20FFF79FFC10B30223012264212370FA
:1014B000134B1A703378134A43F042033370124BC4
:1014C00011801A7865F386121A70002205201146E1
:1014D000BDE8F840FEF766BF0A2304222370084BDC
:1014E0001A702B7803F0BF036FF30003D6E6F8BD44
:1014F00063060020400100206809002094060020B7
:10150000450100205209002062060020074B1B788D
:10151000012B06D0022B06D0002205201146FEF733
:1015200041BFFFF7BBBDFEF7EBBF00BF440100208A
:10153000C36810B504460BB19B689847204610BDA0
:10154000C36810B504460BB19B689847204610BD90
:1015500038B505460446064B45F8183B04F0F4F947
:101560002846FFF7EDFF204604F036FB204638BD45
:10157000A07B000810B50446FFF7EAFF20462821AB
:1015800004F02AFC204610BD10B50446024B03604F
:10159000FFF7DEFF204610BD887B000870B50646C9
:1015A00004460B4B00F1B80546F8983BB54204D011
:1015B000103D2846FFF7C4FFF8E704F13800FFF7B5
:1015C000B7FF04F12800FFF7B3FF204670BD00BF4E
:1015D000707B000810B50446FFF7E0FF2046BC21F1
:1015E00004F0FAFB204610BD10B50446024B036020
:1015F000FFF7D4FF204610BD587B0008F8B50D4614
:1016000000F11806044630461746FFF799FFEB68CD
:101610001BB15B68294630469847EB6839466362E0
:101620002046BDE8F84004F07BB900007FB53A22BF
:10163000204C214E2378214D6FF3C3032370336870
:10164000B3FBF2F31E4A13802B78013BDBB22B7005
:101650000BBB2278910708D563F341021948227029
:1016600004F0A4F942F2FC1333600223012116486E
:101670002B70FEF7DBFD154B0A220093144B6946D5
:1016800014480393FFF7BAFF6846FFF759FF237822
:1016900043F00203237010490A78930708D50F48D6
:1016A0000388013B9BB2038013B963F341020A70C4
:1016B00004B070BD62060020100600205109002011
:1016C00040010020E4020020540900205D020008CF
:1016D000F4700008F4020020630600205209002084
:1016E0007D4B7E4A80B500241A60FF224FF00A0825
:1016F0001C717B4D5C719C72DA717A4B7A492B605C
:101700007A4B7B4FDA7119601C715C719C7279495C
:10171000794B8AB09A7119601C715C71774B4FF4E8
:10172000E1311C70764B7748AA7183F800803C70D9
:101730002C716C7103F0D0FF734804F018F904F0B9
:10174000F3FA1921714801F00BFE04F017FB04F0C5
:10175000EBFA19216E4801F003FE04F00FFB04F0D0
:10176000E3FA14216B4801F0FBFD04F007FB21466E
:101770006948FEF75BFD694E694B42F2107206A99B
:10178000684806930996FFF739FF06A8FFF7D8FEC9
:10179000654B224606A95B480693099604F046F875
:1017A00006A8FFF7CDFE614B06A96148069309968E
:1017B00003F0C0FE06A8FFF7C3FE5E4B06A95E4815
:1017C00006930996DFF8949103F0B4FE06A8FFF79C
:1017D000B7FE06A959480996CDF8189003F0AAFE5D
:1017E00006A8FFF7ADFE06A954480996CDF8189053
:1017F00003F0CAFE06A8FFF7A3FE02223B782146AB
:1018000043F001033B704E4B40481A70FEF7BDFD9C
:1018100021463F48FEF7B9FD6421684600F04AFAC8
:10182000142102A800F046FA4146464800F042FA68
:101830004FF4967104A800F03DFA43F6982106A8EB
:1018400000F038FA4FF47A713F4800F033FA3F481D
:1018500000F06EFDFEF796FF3D4800F0CDFD3D48DF
:1018600000F0E0FD5A20FEF7B1FE3C46394E374FFE
:10187000384600F08FFC31686846FEF7F7FF00221B
:1018800029461548FFF76AFA01221B491748FFF756
:1018900065FA314803F0E6FD2E4BC2B22C4902A88E
:1018A00000F05EFEFEF70AFFFEF72EFF06A8FFF728
:1018B00057F82378980601D5FFF752FB23781907CC
:1018C00001D5FFF7B3FE23785A07D1D56FF3820312
:1018D0002370FFF71BFECBE76005002039030020D3
:1018E000700500203904002070090020700B0020D2
:1018F00062060020700A0020800B00206306002092
:1019000050090020000200201C070020D008002001
:10191000E80800207008002054090020F470000836
:10192000F1010008BC0200207D020008C502000889
:1019300088080020ED02000800090020140600209D
:101940005109002064060020680900202C070020AF
:1019500008070020F40000202408002015030008D8
:10196000034653F8042B10B5044602B903602268FD
:101970009A4204D059220349034804F0B1F920687F
:1019800010BD00BFC0710008F271000808B5024820
:10199000FFF7E6FF08BD00BF2C13002008B5024882
:1019A000FFF7DEFF08BD00BF2C130020F8B504468A
:1019B0000F460546074B084E44F8043B3046FFF7F8
:1019C000CFFF3946204600F063FE3046FFF7C8FFE0
:1019D0002846F8BDE47000082C13002010B504461A
:1019E000FFF702FE2046BC2104F0F6F9204610BDA8
:1019F00010B50446FFF7C8FD2046282104F0ECF995
:101A0000204610BD2DE9F0474FF01408874C8EB0EA
:101A100042460021204604F0BCFB4FF01F0920463F
:101A20004FF0FF34824E834D834F2D2104F045F853
:101A3000DFF858A21E230C940B940A94099408947E
:101A40000794069405940494039402940194CDF8A9
:101A5000009017221621304603F054FC2A463946DE
:101A6000304601F065FD754E4146504603F02CFDB1
:101A70005046DFF81CA22A46314601F059FD4FF4CA
:101A800016530A220921504603F0CAFD5046DFF8DA
:101A900004A22A466A4901F04BFD42460021DFF8C4
:101AA000F881504604F075FB50461D2104F005F8FE
:101AB0001C21404603F008FDDFF8E0A12A4631462C
:101AC000404601F035FD04F02FF908215D4801F092
:101AD000DBFBDFF8CC8104F051F902215046FFF71F
:101AE00065FF5046DFF8BCA12A46414601F020FDC3
:101AF00001215046FFF75AFF5046DFF8ACA12A46B5
:101B0000414601F015FD00215046FFF74FFF4146C9
:101B1000DFF898812A46504601F00AFD1921404617
:101B200003F0D2FC4046DFF888812A46314601F0B6
:101B3000FFFC1821404603F0C7FC3146424E2A46BE
:101B4000404601F0F5FC23460C940B940A9409944A
:101B500008940794069405940494039402940194C1
:101B6000009449461E22304603F0CCFB3046374EE7
:101B70002A46394601F0DCFC23460C940B940A9467
:101B80000994089407940694059404940394029489
:101B90000194009416221721304603F0B3FB30461F
:101BA00000262A46394601F0C3FC04F0BDF8112195
:101BB000274801F069FB04F0E1F804F0B5F81021C2
:101BC000244801F061FB04F0D9F8234B234C24484E
:101BD0001E705E6003F01DFF224803F01AFF2046CE
:101BE00003F0DAFF204B6662236020461F4C2A4632
:101BF0001F4901F09DFC204603F0CEFF1D4B66629D
:101C0000236020461C4C2A461C4901F091FC4FF4ED
:101C100080731B4A1B49204600F0AEF82A46204636
:101C200019490EB0BDE8F04701F082BCEC0100207C
:101C3000B8060020EC000020CD5200086D540008CA
:101C4000E91500087008002078050020C405002070
:101C5000D0080020E808002008070020F402002037
:101C60001C070020E4020020887B0008BC02002042
:101C700089150008A07B00082C07002051150008DA
:101C8000750B002070090020C11D000824080020E9
:101C90000002002054090020140600207C060020C9
:101CA000ED0100087006002088060020880800204A
:101CB00000090020002381808371704738B5847942
:101CC00005463CB901238371084803F08CFE286067
:101CD000204638BD054803F086FE00242B68C01A54
:101CE000AB889842A4BFAC710124F1E71C07002027
:101CF0002DE9F047194E1A4F1A4D184803F000FD10
:101D000048B33B782BB9184B93F80080B8F1000F1B
:101D100008D06C783046631C6B7003F08BFC2C444D
:101D20006071EAE7114C3046236893F80090104B3D
:101D3000D3F800A003F07EFC0AF8090022681378AB
:101D40000133137023680B4A197812689142D4D971
:101D500083F80080D1E7BDE8F08700BFD80D0020F0
:101D60008E0D0020880B002046010020B80D0020B9
:101D7000A00D0020980D002030B50024094D0470FE
:101D8000296009490A60094A1360094BDC705C70DC
:101D90001C719C70074B1C70074B1C70074B1C7010
:101DA00030BD00BFA00D0020B80D0020980D002010
:101DB000880B0020900D00208F0D00208D0D00203D
:101DC000704700000122054B1A700A22044B19606B
:101DD000044B1A7000230370704700BF8E0D002063
:101DE000940D0020880B00200023F0B51D46094CFF
:101DF000E778F8185E1CDBB29342C0B206DACB5C1F
:101E0000204480F8053101253346F2E705B1E07042
:101E1000F0BD00BF880B00200078704708B5084867
:101E200003F07FFC58B1074B05481A79511C197112
:101E3000134493F80511BDE8084003F00ABC08BD3F
:101E4000D80D0020880B0020F0B50026304635461E
:101E5000134B5F789C78A7421DD003EB040E9EF8CD
:101E600005C011F805E0E64508D10135EDB211F8DD
:101E700005E0BEF1000F08BF0120F2E7012806D1FE
:101E8000012A04D106B19C7000F00100F0BD0134BC
:101E9000E4B20126DFE7002EF6D09F70F4E700BF22
:101EA000880B0020F8B5B24C064623780B2B7BD864
:101EB000DFE813F00C0037005D00A5007A00CB00CE
:101EC000F90022017A007A007A004C01A94D2B78A2
:101ED0002A460A2B14D1EB784C1E103114F8015FFE
:101EE000581C0A2D1344C0B283F8055103D1D07099
:101EF0000823137054E08C420346EFD1D370F7E708
:101F000000229D49FFF7A0FF9C4B002800F0F080C5
:101F100000221A700A232B70012399490A7023703A
:101F200042E0944D2B782A460A2B10D1EB7801F130
:101F30001104243114F8015B581C0A2D1344C0B25B
:101F400083F80551D3D08C420346F3D1D6E7002263
:101F50008949FFF779FF894B002800F0C9800022EA
:101F60001A700A2386492B700A700223D7E7814D25
:101F70002B782A460A2B2ED1EB7801F124048831E4
:101F800014F8015B581C0A2D1344C0B283F80551A4
:101F90001CD1D0700823137041F28832794B1A801B
:101FA000774A137801331370754B1B78032BC2BF2C
:101FB0000022754B1A70714B1A78032A40F3D780B0
:101FC00000221A700A226B4B1A70F8BDA142034618
:101FD000D6D1D070DEE700226749FFF735FF674BA7
:101FE000002800F0858000221A700A2364492B70B3
:101FF00003230A7014222370624B1A80D4E75D4DCC
:102000002B782A460A2B11D1EB7801F188049531FF
:1020100014F8015B581C0A2D1344C0B283F8055113
:102020003FF465AF8C420346F2D167E70022524984
:10203000FFF70AFF514B00285AD000221A700A23DA
:102040004F492B700A70052369E74A4D2B782A46C1
:102050000A2B17D1EB7801F19504CF3114F8015B0D
:10206000581C0A2D1344C0B283F8055105D1D07015
:102070000823137040F2DC5290E7A1420346EDD1F1
:10208000D070F5E700223C49FFF7DEFE3B4B78B30A
:1020900000223B491A700A700F223A4B1A800A2319
:1020A0002B7006233BE7334D2B782A460A2B11D1A0
:1020B000EB7801F1CF04DD3114F8015B581C0A2DD7
:1020C0001344C0B283F805513FF411AF8C4203466C
:1020D000F2D113E700222849FFF7B6FE274B38B1AB
:1020E00000221A700A2326492B700A70072316E76C
:1020F0001A7801321A7057E71E4D2B780A2B15D12A
:10210000EB7801F1DD00E93110F8014B5A1C0A2C83
:102110002B44D2B283F8054103D1EA7008232B7017
:102120003EE781421346EFD1EA70F7E700221249F9
:10213000FFF78AFE114F024688B914493046FFF76F
:1021400083FE60B93B7801333B702DE704220E4BD0
:102150001A7000220E4B1A700123037024E700232B
:10216000074A3B7013700A232B700B23D7E6F8BD88
:102170009C0D0020880B0020667200088F0D002047
:102180008D0D002048010020900D00206A7200088B
:102190008E0D002038B5554D04462B78042B00F2E7
:1021A000A380DFE803F0032D555B7A00504803F06D
:1021B0000DFC504C2368C01AB0F5FA7FC0F0948033
:1021C0004B4803F003FC20604B4CB4F90030013362
:1021D00004D1482249494A4803F082FDA3681A689D
:1021E00063681A42B4F9003060D0013304D13A2256
:1021F0004249434803F074FD236962681A6038BDA0
:102200003B4803F0F0FB3F4B1B68C01A42F20F73D0
:10221000984204D900223C4B1A7002232B70344898
:1022200003F0E1FB394B1B68C01AB0F5FA5F5BD3D2
:10223000002237492046FFF707FE002854D003222A
:10224000344B1A700022304B1A7002232B7038BDA9
:10225000314B1B78002B47D00323F7E72F4D29790B
:10226000EA78914201D0FFF7D9FD2B78082B0DD1E8
:102270001F4803F0B8FB234D2B68C01A284B1B885E
:10228000984231D31A4803F0AEFB2860254B204614
:102290001968BDE83840FFF705BE204B1A79DB7896
:1022A0009A4221D0BDE83840FFF7B8BD013304D1D0
:1022B0003A221249124803F013FDE36862680C48A1
:1022C0001A600023134A137001222A70164A1370F1
:1022D000164A137003F087FB0A4B1860044803F09A
:1022E00082FB0A4B186038BD38BD00BF900D00203E
:1022F000C40D0020C00D0020A40D002006720008AF
:102300004E720008BC0D002046010020D40D0020B4
:102310006D7200089C0D00208E0D0020880B00209F
:1023200048010020940D00208F0D00208D0D00200D
:102330001FB5144CB4F90030013304D13A221249CC
:10234000124803F0CDFCE368626869461A60104BDE
:10235000002200930F4B1048039303F067FA68467E
:10236000FFF7EEF80D4803F002FB0C4803F03BFBCF
:102370000B4B1860094803F029FB0A4B186004B0A6
:1023800010BD00BFA40D0020067200084E720008A8
:10239000F11C0008F4700008D80D0020C40D0020C6
:1023A000D40D0020C00D002010B50E4C0E4803F0D7
:1023B00030FB14220021204603F0EBFE20460B4C9C
:1023C000032103F07AFB1B221A2120464FF4E1334C
:1023D00003F026F92046BDE81040054A054901F002
:1023E000A7B800BFA40D0020C40D0020D80D002008
:1023F000EC000020E9150008002130B5084B017001
:102400001A78142301255343C45C05FA02F22243CF
:10241000C2540223057243728372C160016130BDF0
:102420006C060020084B0360002380F8443080F8DD
:10243000453080F84630012380F8473080F8483036
:102440000523037143717047AAAAAA2A90F8452070
:10245000437932B150F823300360002380F84530CF
:10246000704790F8441031B10A3350F8233080F8A7
:1024700044200360704790F8472022B100EB8303AB
:102480005B690360704750F82330FAE738B50546BA
:1024900018480C4603F0A7FAEB68C01AB0F57A7F2B
:1024A00002DD94F8463063B9124803F09CFAEB68F9
:1024B000C01A41F2883398421ADD94F8463053B975
:1024C00038BD012384F844300023204684F8453089
:1024D000FFF7BCFFE8E70023012284F8443084F8CA
:1024E000452084F847302046BDE83840FFF7AEBFAE
:1024F00038BD00BF1C070020036970B5653BB3F50C
:10250000617F05460C4611D291F8463073B9012619
:1025100081F8443081F845600846FFF797FF6379FA
:102520003344DBB2052B94BF637166716FF47A722A
:102530002B691344B3F57A6F10D294F846306BB917
:1025400084F8443084F848300123627984F84730B5
:1025500022712046BDE87040FFF778BF70BD0000D3
:1025600070B50C4615461E46FFF7A8FB90B11F4BF1
:1025700022782A401D78237A2A41D2B26272032B34
:1025800032D8DFE803F013021C080223A3720AB951
:102590000323237270BD3ABB2272A272144803F067
:1025A00022FA0123E06086F8463070BD31462046AD
:1025B000FFF76CFF637A012BECD10223E9E7012AD4
:1025C00010D12272A2720A4803F00DFAE368314674
:1025D000C01A0023206186F846302046BDE87040CE
:1025E000FFF78ABF0023D4E70123D2E76C0600205F
:1025F0001C0700201FB50268244B1A608279012352
:1026000002930393112A3DD8DFE802F0092A0B0D4B
:102610000F11131517191B1D1F212325272900230F
:102620001EE002231CE003231AE0042318E0052324
:1026300016E0062314E0072312E0082310E0092324
:102640000EE00A230CE00B230AE00C2308E00D2324
:1026500006E00E2304E00F2302E0102300E0112324
:1026600001A90A48019301F04FFA084801F040FB24
:1026700006480A2101F09EF920B9044801F040FA09
:1026800080B200E0002005B05DF804FB4C13002090
:1026900070B5054686B008460C46244903F04CFA4E
:1026A0002860013004D122482249302203F018FB6F
:1026B00020461E4903F05CFA431C064604D11E481E
:1026C0001C49342203F00CFBC6F3C426EF2CAE7178
:1026D00003DC2046154903F0F3F9184BAC801C6865
:1026E0000CBB01261E60164B02A89A6942F40072C8
:1026F0009A619B6903F400730193019B0223029387
:102700004FF40043049302F0D5F82B680D4880E89D
:1027100018004FF460238460C460066144618461E2
:10272000C36101F069FB06B070BD00BF34740008DE
:1027300018750008307500088B750008940E00208D
:10274000001002404C13002008B5FFF753FFC0F300
:10275000032343EA001080B208BD00003A4970B577
:102760004B693A4CDB0721602FD58A68384B3848D3
:1027700013401D1A8A68374B684203EA0203354A40
:1027800068419E1A8D68344B724203EA0503324D4C
:102790007241C5EB030CDCF1000343EB0C0308B101
:1027A00001258D601AB128494FF480758D601BB1E9
:1027B00025494FF480358D6008B902B92BB1274BFC
:1027C000274A1B681068012198472368DA685B690B
:1027D000920707D09E0705D5204B214A1B68106839
:1027E00000219847236899695A698D075B6909D563
:1027F000900507D5190405D5184B194A1B681068B0
:102800000521984723689E695D69C6F38006C5F374
:1028100080255B6946B13DB11A0405D50F4B104ABE
:102820001B6810680721984723685B6956B14DB152
:102830001B0407D5BDE87040084B094A1B681068A7
:102840000221184770BD00BF00640040980E0020B0
:10285000030000040003000800000310D80E00204D
:10286000DC0E0020FFF77ABFFFF778BFFFF776BFD7
:1028700010B50C4CA268A4681346B4F1006F0CD1DB
:10288000131F094A53F8044F42F8044F074CA24261
:10289000F8D1044A4FF000539360103043F82010F1
:1028A00010BD00BF00ED00E0FCFFFF1FE8000020AE
:1028B000431C10B5044604D106480749262203F0FC
:1028C0000FFA2046002100F0DDFA04F00F04012089
:1028D000A04010BD53720008A475000870B50446EE
:1028E0004B1C0E46218010D0C1F3031000F080FA7B
:1028F00005463046FFF7DCFF05F10803A36005F14C
:10290000100314356060E360256170BDB0F900000C
:1029100000F058BB38B5B0F90030054601330C461D
:1029200004D108480849492203F0DAF9012CB5F925
:10293000000008BF2146BDE8384018BF002100F064
:10294000A1BA00BF4E720008A47500082DE9F0413D
:1029500007468846144E4C2404FB006400250434CA
:1029600045451ED04C237B430121F35801FA05F263
:102970001A4213D00D4A236B506901FA03F3034244
:10298000D4F818E00AD05361206838B1DEF8082086
:102990001342074B08BF02211B68984701350434D6
:1029A000DEE7BDE8F08100BFE00E0020000401403A
:1029B000F410002000200121FFF7C8BF01200146CC
:1029C000FFF7C4BF02200121FFF7C0BF0320012190
:1029D000FFF7BCBF04200121FFF7B8BF0520014667
:1029E000FFF7B4BF06200146FFF7B0BF2DE9F74F50
:1029F0009B464B1C81460D46019266D001F00F08A4
:102A000008F1FF33C1F303100E2B09D8DFE803F000
:102A10000C1014181C1C1C1C1C2020202020200022
:102A20002C4F0024062616E02B4F0124072612E027
:102A30002A4F022408260EE0294F032409260AE023
:102A4000284F04240A2606E0274F0524172602E013
:102A5000264F0624282600F0CBF94FFA86FA00907C
:102A60000721284600F00EFA50463946FFF700FFCE
:102A700006F01F01012202FA01F01D494FEA5A1324
:102A800041F823001B4B89F8006053F828604C2361
:102A900063431949A9F80C5002FA06F5CA580020F8
:102AA0002A43C9F80440C9F80800CA50132303FB9D
:102AB0000464009A01EB8403DA61C3F804B0C3F83C
:102AC0003480019A0D4B1A6000E0084603B0BDE85F
:102AD000F08F00BFB5290008BD290008C5290008EE
:102AE000CD290008D5290008DD290008E5290008BE
:102AF00000E100E0EC750008E00E0020F41000207A
:102B0000F8B5054644688089164A00F00F03C0F303
:102B1000031000F580100126423006FA03F180020E
:102B200052F8237001F0D4FA4C2161430E4ABE40A2
:102B30005358B5F90C0023EA0606132303FB04736C
:102B40005650002402EB83014C60991D0C3302EBBC
:102B5000810102EB83034C605C60214600F086FA41
:102B6000AC60F8BDEC750008E00E0020A2B10129B0
:102B700005D18368023B012B08D981601EE0022940
:102B800021D1836823F00203012B03D10323836047
:102B9000082119E0816007E0012907D18368023B21
:102BA000012B0DD80223836007210DE002290AD1F1
:102BB000836823F00203012B02D18360062103E026
:102BC0008260114600E00C21B0F90C0000F04EBA12
:102BD000F8B52C4B2C4C5E6A1A692360D20712D5CB
:102BE000DA68D7070FD56FF001021A61274B1A6810
:102BF00001321A601A68B3B203EB0243244A13602D
:102C0000244B01221A701F4B1A6995071FD5DA68E9
:102C100090071CD56FF002021F4D1A612B889BB2E2
:102C200033B1288880B202F0BDFA00232B800EE079
:102C30001A4F3B684BB14FF6FF70B6B202F0B2FAD2
:102C40002E803B68013B3B6001E003F043F82368C2
:102C50001A69510714D5DA68520711D56FF00402CA
:102C60000F4D1A615C6A2B68E31AB3F57A7F07D3BC
:102C700000F084FE044B04F57A721B689A632C60A2
:102C8000F8BD00BF00080040C81300202413002036
:102C900018130020041400201C1300202813002007
:102CA000F8100020274B37B5DA69274C42F00402B0
:102CB000DA61DA69002502F004020192019A1A69C8
:102CC00042F004021A611A6922F004021A6102F049
:102CD000A1F91E4B1E4A23604FF6FF73E3601D4BA4
:102CE00020461B682561B3FBF2F3013B6360A560DE
:102CF00001F0AEFF2946204602F07AF82046042172
:102D000002F076F82268144B516A1E2019601B6885
:102D1000124903F57A739363FFF7AAFD104B4FF046
:102D200080421A6023682046DA6842F00102DA60C5
:102D3000DA6842F00402DA6001F047FF284603B087
:102D400030BD00BF00100240C81300200008004042
:102D500040420F0050010020F8100020D12B000845
:102D600000E100E008B502F0DFFF962003F02FF845
:102D7000962003F02CF8F8E730B505460C46A1B0D4
:102D800002F0D2FF29466846224603F065FA051E86
:102D900003DC02F0F3FF21B030BD094B1B6823B9FF
:102DA00008480221032200F071FC00241DF80410E1
:102DB0000448013400F09EFDAC42F7D1E9E700BFC2
:102DC000001300207C1300200FB407B504A951F8AC
:102DD000040B0191FFF7D0FF03B05DF804EB04B0E2
:102DE000704708B502F016F9BDE8084000F0B4BD20
:102DF0001FB5032833D8DFE800F0020E1A261B4B5C
:102E00001B489A6942F004029A619B6903F004032B
:102E10000393039B27E0154B16489A6942F008027A
:102E20009A619B6903F008030093009B1BE00F4B22
:102E300011489A6942F010029A619B6903F01003ED
:102E40000193019B0FE0094B0C489A6942F0200264
:102E50009A619B6903F020030293029B03E00848F8
:102E600002F050FF002005B05DF804FB00100240A6
:102E700000080140000C0140001001400014014016
:102E80002C7600082DE9F043431C87B005460C461C
:102E900004D147484749562202F022FFC5F30310E8
:102EA000FFF7A6FF444B04F00F079A69C4F302161C
:102EB00042F001029A619B69C4F3C31903F0010354
:102EC000ACB2019304F00F08019BB9F1000F44D09C
:102ED00009F1FF31092940D8DFE801F0050A0F1494
:102EE0001920272E3338354A536843F0010333E065
:102EF000324A536843F002032EE0304A536843F0ED
:102F0000040329E02D4A536843F0080324E02B4AC8
:102F1000536823F0300343F010031DE0274A536841
:102F200023F0C00343F0400316E0244A536823F41F
:102F3000406343F400630FE0204A536843F4407356
:102F40000AE01E4A536843F4406305E01B4A536895
:102F500023F4C04343F480435360012303FA08F38E
:102F60000293174B02A953F82730049603930323C7
:102F7000059300F0E7FFA4F10D03012B07D80F4ADA
:102F8000536823F0E06343F08063536009E00F2D42
:102F900007D10A4A536823F0E06343F0007353609B
:102FA00002E0133C012CF4D907B0BDE8F08300BF68
:102FB000537200084D7600080010024000000140E6
:102FC000A4760008F8B5431C07460D4604D12548F1
:102FD0002549A42202F084FEC7F30310FFF708FF7F
:102FE000BCB204F00F06072E8DBF04F00703B30038
:102FF00002469B0088BF021D002D31D0022D02D950
:10300000032D21D0F8BD14680321994021420BD132
:10301000146808219940214311601168042404FABE
:1030200003F321EA03031360012D15BF0123C368D5
:10303000C26805FA06F115BFB340194322EA03033B
:10304000C16018BFC360F8BD106805FA03F1014202
:103050001FBF1168042000FA03F30B4318BF13606D
:10306000F8BD00BF537200084D7600082DE9F0410D
:1030700084B20646C0F303100F46FFF7B9FE04F012
:103080000F08B8F1070F8BBF04F007044FEA88045C
:10309000A400026888BF42684FF0030303FA04F3F8
:1030A00094BF0546051D1A4012D129680823A34084
:1030B0000B4016D029680423A3400B4210D1C268EC
:1030C000012303FA08F3134214BF0123022308E08B
:1030D0002A680423A34013420CBF0023032300E00B
:1030E000134607F00F013046BDE8F04141EA0311F5
:1030F000FFF7C8BE30B50268254B89B005460C46BF
:1031000008461A60002103F0A5FE40B920464FF0A2
:103110007E5103F0BDFE18B14FF07E5400E0002454
:10312000E86803F0A1FC214603F0F6FC03F0BAFEC8
:1031300060230193AB682861B0FBF3F00023039395
:1031400004930593069307932B7D0290013B032B79
:103150001CD8DFE803F008020406042404E0082475
:1031600002E00C2400E00024094801A9224601F0F5
:10317000CFFD10B1074802F0C5FD6B7D0448214624
:1031800013B101F06DFE01E001F048FE09B030BD61
:10319000FC100020D876000838B5C46894B10069E6
:1031A00003F062FC0546204603F05EFC014628461B
:1031B00003F066FD4FF07E51044603F069FE18B936
:1031C000204638BD002038BD4FF07E5038BD00008D
:1031D0002DE9F041D0F80080264C05460E46C4F893
:1031E0000080FFF7D9FF41F21113D8F820200746DD
:1031F00013405BB940F24443D8F8202013402BB968
:10320000D8F8003023F00103C8F80030B6F5803F4D
:10321000ACBF4FF4FA730123AB60174B174A1B681E
:10322000B3FBF2F2AB685343013BB3F5803F6360FD
:1032300002D3134802F066FDAA68731EB3FBF2F3D3
:10324000B3F5803FE36002D30E4802F05BFD00233C
:1032500008482361A36001F015FDEE602846394659
:10326000FFF748FF2268136843F001031360BDE8CD
:10327000F08100BFFC1000205001002040420F00F0
:10328000EF7600080B7700087FB504460E46084627
:103290002C4902F051FC2060013004D12A482B490E
:1032A0002D2202F01DFD3046264902F061FC431C30
:1032B000054604D126482549312202F011FDC5F307
:1032C000C4232375234A2368C5F3004593426575DB
:1032D0000AD1214B9A6942F400629A619B6903F416
:1032E00000630193019B1BE0B3F1804F0BD103F509
:1032F0000433DA6942F00102DA61DB6903F00103A9
:103300000293029B0CE0154A934209D1124BDA69F1
:1033100042F00202DA61DB6903F002030393039BCC
:103320003046084902F0CCFB0023E360236101230F
:10333000A680A360204644F62061FFF749FF04B051
:1033400070BD00BFC0720008247700083C770008F9
:103350008B750008002C0140001002400004004062
:103360004FF47A735943FFF733BF38B50446084624
:1033700003F07EFB0546E06803F076FB0146284635
:1033800003F07EFC01462046BDE83840FFF7B2BEA0
:1033900008B5084B1B685BB907480221032200F0FF
:1033A00075F905484FF41651BDE8084000F012BA0F
:1033B00008BD00BF001300207C13002002284FF03E
:1033C000000309DD0749C21E51F8220041F82230EE
:1033D00020B103685B681847184670474FF0FF300C
:1033E000704700BF3C110020022870B50C461546FE
:1033F0000FDC0E4B1B680BB9FFF7CAFF6619B4420E
:1034000005D00B4814F8011B00F074FAF7E72846C2
:1034100070BD084B033853F8200020B1BDE8704060
:1034200003681B6818474FF0FF3070BD0013002081
:103430007C1300203C110020022810B50C460ADC49
:103440000B4B1B680BB9FFF7A3FF0A4800F032FAD9
:103450002070012010BD084B033853F8200020B124
:10346000BDE8104003689B6818474FF0FF3010BD5F
:10347000001300207C1300203C110020022807DDEF
:10348000064B033853F8200020B103681B69184726
:10349000002070474FF0FF30704700BF3C11002004
:1034A00008B5012000F046F8704708B5FFF799FC11
:1034B000FFF7FAFF08BD704708B5FFF7FCFFBDE84E
:1034C0000840FEF70DB900000C4A10B51368184407
:1034D000EFF30881884205D3094B0C221A604FF0A4
:1034E000FF3010BD0749096821B1074C2468214409
:1034F0008842F1D21060184610BD00BF4C01002078
:1035000008140020381100203C1200200546074C0A
:1035100008B52368986802F013FD2368D86802F0A4
:103520000FFD0DB1FFF71EFCFEE700BF54010020A8
:103530000120704708B5FFF7E9FF01207047704789
:10354000704708B5FFF7FBFF08BD08B5FFF7F8FFA8
:1035500008BD000010B502F0F3FD044610B90248A2
:1035600002F0D0FB204610BD4478000808B102F0FC
:10357000EFBD70474309064900F01F000122824059
:10358000203341F82320BFF34F8FBFF36F8F704775
:1035900000E100E00346426810B517491C6892013B
:1035A00088188C509A68D9684260024642F8081F11
:1035B0001969516059699160196A00F110029160AE
:1035C0000021C1848184C1858185B3F91A1001313C
:1035D00001D1082305E0B3F9183001330CBF0423EF
:1035E0000C23536001F0E9FC20B1BDE81040034812
:1035F00002F088BB10BD00BF40120020D178000847
:103600001A4BF7B5074653F820001E4600282BD06A
:10361000174CBD0163591A6852060AD5DB68590672
:1036200007D5144B01211B68984763596FF040027E
:103630001A6063591A6892060DD5DB6898060AD598
:103640000C4B56F827001B6800219847084B6FF079
:1036500020025B591A6063591A68110704D55A6928
:10366000D20744BF5B68019303B0F0BD0413002090
:1036700040120020101300200020FFF7C1BF0120DE
:10368000FFF7BEBF0220FFF7BBBF0000F0B5044646
:1036900085B008460E464549154602F04DFA4449A4
:1036A0000746284602F048FA0146384602F026FA54
:1036B0002060013004D13F483F49642202F010FBF2
:1036C00023683E4A934213D13D4BDA6842F480426C
:1036D000DA60DA6822F48042DA609A6942F4804261
:1036E0009A619B6903F480430193019B00232CE0C2
:1036F000344A934213D1324B1A6942F400321A61B0
:103700001A6922F400321A61DA6942F40032DA618D
:10371000DB6903F400330293029B012315E02A4A7C
:10372000934213D1264B1A6942F480221A611A6916
:1037300022F480221A61DA6942F48022DA61DB69BC
:1037400003F480230393039B0223636030461749ED
:1037500002F0B6F92846164902F0B2F9721C03D0FD
:1037600030460121FFF72EFC6B1C03D028460121B7
:10377000FFF728FC4FF41653A3600023E360236196
:1037800063612362268365832046FFF703FF226877
:103790000C4B9A4207D10D4B01221A600C4821466E
:1037A0004C2202F0EBFC05B0F0BD00BFEC7300084A
:1037B00078720008E97800080579000800380140AF
:1037C0000010024000440040004800400013002068
:1037D0007C1300208160FFF7DDBE0000034B196001
:1037E0004168034B43F82120704700BF10130020AD
:1037F0000413002038B509C80D462149884202D17A
:10380000204925240CE02049884202D11F49262462
:1038100006E01F49884219BF00210C461D49272494
:103820001D489B01AAB1C258D36815B943F02003C3
:1038300001E043F0400365B2D3602846FFF718F873
:1038400004F007040123154A6D09A34042F825300E
:1038500038BDC358DA6835B922F02002DA60DB6877
:103860001A0606D538BD22F04002DA60DB689B06F6
:1038700004D42046BDE83840FFF77CBE38BD00BF09
:103880000038014079360008004400407F360008C7
:1038900000480040853600084012002000E100E0AA
:1038A0004368034A9B01D3581868C0F3401070471F
:1038B0004012002038B5054644682846FFF7F0FF5F
:1038C0000028FAD0054AA301D358E968586809B915
:1038D000C0B238BDC0F3080038BD00BF40120020A0
:1038E0004368034A9B01D3581868C0F3C01070475F
:1038F0004012002070B506460C4645683046FFF77A
:10390000EFFF0028FAD0054AF168AB01D35809B996
:10391000E4B201E0C4F308045C6070BD4012002012
:1039200008488546002103E0074B5B5843500431AB
:103930000648074B42189A42F6D301F0F9FBFCF710
:103940001BFCFEE700500020947D0008EC000020E6
:10395000CC010020FEE77047074A08B51368032032
:1039600043F01003136000F0DBFA0F20FFF79AF921
:10397000FFF7F1FF002008BD00200240024A136853
:1039800001331360704700BF14130020014B186807
:10399000704700BF1413002013B50190FFF7F6FF26
:1039A0000446FFF7F3FF019B001B9842F9D302B0D6
:1039B00010BD7047F7B5044600260D460196FFF787
:1039C000E5FF236807469A68D20507D5A36A84F8FD
:1039D000246043F02003A362012083E05A68D605E7
:1039E00011D4DB6A13F4700F0DD1226813689907A4
:1039F0002AD4681CFAD0002D52D0FFF7C7FFC01B95
:103A0000A842F2D94CE0384B02201E6800F0DEFFDD
:103A10002368364A1969B6FBF0F00A401ABBD96828
:103A2000334A0A40FAB91969324A0A40002A2ED1AB
:103A3000DA68314B1340002B14BF2923142300FBF9
:103A400003F6019BB34228D322686FF01203136080
:103A5000A36A43F40073A362936803F46023B3F58D
:103A6000602F31D12EE01969224A0A401AB9D9686B
:103A7000214A0A406AB11969204A0A405AB9DA68EB
:103A80001E4B1340002B14BFFC235423D7E72923DC
:103A9000D5E75423D3E7FC23D1E76B1C0ED045B9FF
:103AA000A36A032043F00403A362002384F82430B4
:103AB00018E0FFF76BFFC01BA842F1D8019B013350
:103AC0000193BEE7E3680BB100200BE0A36A23F487
:103AD0008073A362A06A10F48050F5D1A36A43F00A
:103AE0000103A36203B0F0BD5001002024499224D9
:103AF00024499200922449129224490049922400B8
:103B00000368D86C70470000F7B50023019390F864
:103B10002430012B00F0AB80012380F824304B6867
:103B20000268062B0D6818D8576B4FF4787494FA16
:103B3000A4F6B6FA86F6013B94FAA4F4B4FA84F437
:103B40005E4363434FF01F0E0EFA06F627EA0606A1
:103B500005FA03F33343536330E00C2B4FF47874CE
:103B600016D8176B94FAA4F6B6FA86F6073B94FAC1
:103B7000A4F4B4FA84F45E4363434FF01F0E0EFACC
:103B800006F627EA060605FA03F33343136315E046
:103B9000D76A94FAA4F6B6FA86F60D3B94FAA4F422
:103BA000B4FA84F45E4363434FF01F0E0EFA06F638
:103BB00027EA060605FA03F33343D362092D4FF0D3
:103BC0003803896816D9D76893FAA3F6B6FA86F649
:103BD000A5F10A0493FAA3F3B3FA83F366436343AC
:103BE0004FF0070E0EFA06F627EA06069940314313
:103BF000D16012E0166993FAA3F4B4FA84F493FA4C
:103C0000A3F3B3FA83F36C436B43072707FA04F477
:103C100026EA0404994021431161A5F11003012B08
:103C200001D900231EE0134B9A4216D193681B0260
:103C3000F7D49368102D43F400039360F1D10E4B39
:103C40000E4A1B68B3FBF2F20A2353430193019B14
:103C5000002BE6D0019B013BF8E7836A43F0200389
:103C600083620123002280F82420184600E002200D
:103C700003B0F0BD002401405001002040420F007D
:103C800073B500230193036804469A68D20701D5EF
:103C9000002026E09A6842F001029A60124B134A13
:103CA0001B68B3FBF2F30193019B13B1019B013B32
:103CB000F9E7FFF76BFE064623689B6813F00105E2
:103CC000E6D1FFF763FE801B0228F5D9A36A84F8CA
:103CD000245043F01003A362E36A012043F0010380
:103CE000E36202B070BD00BF5001002040420F00EF
:103CF00090F8243010B5012B044655D0012380F8EC
:103D00002430FFF7BDFF00284AD1A36A274A23F4D5
:103D1000407323F0010343F48073A362236893424A
:103D200004D123494A6812F4702F05D1A26A22F403
:103D30008012A2625A6804E0A26A42F48012A2626F
:103D40004A68520541BFA26A22F4405242F48052AE
:103D5000A262A26A12F480521CBFE26A22F006023A
:103D6000E262002284F824206FF002021A609A684E
:103D700002F46022B2F5602F0CD10C4A934205D1B7
:103D8000A2F58062526812F4702F03D19A6842F44F
:103D9000A00202E09A6842F480129A60002010BDEE
:103DA000002384F8243010BD022010BD00280140FB
:103DB0000024014038B5036804469A68D20701D44C
:103DC000002038BD9A6822F001029A60FFF7DEFDFC
:103DD000054623689B68DB07F2D5FFF7D7FD401B3C
:103DE0000228F6D9A36A012043F01003A362E36A14
:103DF00043F00103E36238BD38B50446002800F003
:103E00008880836A23B9C36280F82430FFF7D1FD2C
:103E10002046FFF7CFFFA36A13F0100FA36A75D1F6
:103E2000002873D123F4885323F0020343F00203E4
:103E3000A362E568022393FAA3F3B3FA83F3E0697C
:103E40006268A1680243B1F5807F05FA03F040EA99
:103E5000020005D001290CBF4FF48072002200E05F
:103E60000A466369012B15D165B94FF4604595FA8F
:103E7000A5F5B5FA85F5A36942F40062013BAB40B4
:103E80001A4307E0A36A43F02003A362E36A43F006
:103E90000103E3622368B1F5807F5D6825F469451D
:103EA00042EA05025A609D681B4A02EA050242EA9C
:103EB00000029A6001D0012909D14FF4700191FAF2
:103EC000A1F1B1FA81F12269013A8A4000E00022B1
:103ED000D96A21F470010A43DA629A680F4B1340E1
:103EE000834208D10020E062A36A23F0030343F079
:103EF0000103A36238BDA36A23F0120343F0100349
:103F0000A362E36A43F00103E36202E043F01003BB
:103F1000A362012038BD00BFFDF7E1FFFE0E1FFFC9
:103F2000074A00F00700D36823F4E0631B041B0C6E
:103F300043F0BF6343F4003343EA0023D360704788
:103F400000ED00E00023F7B51D4601220C68AA40F1
:103F50001440944240F0AC804A68122A2BD00ED80C
:103F6000022A25D004D84AB3012A30D1CB682EE0EA
:103F7000032A1BD0112A2AD1CB68043327E04F4EE5
:103F8000B2421BD006D8A6F58016B24216D006F56E
:103F9000803608E04A4EB24210D006F58036B24272
:103FA0000CD0A6F58016B24211D107E000230EE036
:103FB000CB6808330BE0CB680C3308E08B682BB17F
:103FC000012B0CBF04614461082300E00423FF2C93
:103FD00097BF8646A5F108070668AF0084BF46680C
:103FE000BF004FF00F0202FA07FC26EA0C0603FAA4
:103FF00007F746EA070688BF00F1040ECEF8006016
:104000004F68FE0054D52F4E05F0030CD6F818E08B
:104010004FEA8C0C4EF0010EC6F818E0B66902FAB1
:104020000CF206F001060196019E25F0030606F14A
:10403000804606F58036D6F808E02EEA020E224ABF
:1040400090420ED002F5806290420CD002F5806260
:1040500090420AD002F5806290420CBF03220422F3
:1040600004E0002202E0012200E0022202FA0CF247
:1040700042EA0E02B260154A17F4803F166814BF78
:104080002643A6431660566817F4003F14BF264324
:10409000A6435660966817F4801F14BF2643A643B4
:1040A0009660D668BF024CBF344326EA0404D4604D
:1040B0000135102D7FF449AF03B0F0BD0000211091
:1040C00000003110001002400008014000040140CF
:1040D000F0B5002531FA05F35DD00124AC400C4069
:1040E00057D0FF2C98BF86466FEA04048BBFA5F11A
:1040F000080703684368AF0088BFBF004FF00F0692
:1041000006FA07F223EA02034FF0040202FA07F26A
:1041100088BF00F1040E1343CEF80030C36825F0C9
:104120000302234002F18042C36002F5803205F0B1
:1041300003079368BF00BE4006EA030E164B984281
:104140000ED003F5806398420CD003F5806398424B
:104150000AD003F5806398420CBF0323042304E0D4
:10416000002302E0012300E00223BB409E4510D162
:10417000936823EA0606094B96601A6822401A6083
:104180005A6822405A609A6822409A60DA6814405D
:10419000DC6001359EE7F0BD0008014000040140ED
:1041A0000368F7B50546D80703D42B68990773D47D
:1041B000F0E0B74C636803F00C03042B07D063688E
:1041C00003F00C03082B16D16368DA0313D54FF400
:1041D000003393FAA3F2226893FAA3F3B3FA83F3BA
:1041E00003F01F0322FA03F3DB07DED56B68002B15
:1041F000DBD1012030E26B68B3F5803F13D05BB9AF
:10420000236823F480332360236823F4802323600E
:10421000FFF7BCFB06462FE0B3F5A02F236806D1BD
:1042200043F480232360236843F4803305E023F4C0
:1042300080332360236823F480232360FFF7A6FBE9
:1042400006464FF4003393FAA3F2226893FAA3F3DD
:10425000B3FA83F303F01F0322FA03F3DF07A4D4B6
:10426000FFF794FB801B6428EBD90320F4E1FFF7F0
:104270008DFB801B6428F8D84FF4003393FAA3F227
:10428000226893FAA3F3B3FA83F303F01F0322FA2D
:1042900003F3D807EBD488E77D4C636813F00C0F69
:1042A00007D0636803F00C03082B20D16368D9039F
:1042B0001DD4022393FAA3F2226893FAA3F3B3FA6C
:1042C00083F303F01F0322FA03F3DA0702D52B6905
:1042D000012B8ED12268F82191FAA1F1B1FA81F176
:1042E0006B6922F0F8028B401343236052E02A6985
:1042F000012372B393FAA3F2B2FA82F2920002F1AE
:10430000844202F584021360FFF740FB0646022355
:1043100093FAA3F25E48226893FAA3F3B3FA83F305
:1043200003F01F0322FA03F3DB0705D4FFF72EFB8C
:10433000801B0228EBD998E70268F82191FAA1F1D5
:10434000B1FA81F16B6922F0F8028B4013430360EC
:1043500020E093FAA3F3B3FA83F39B0003F18443C1
:1043600003F584031A60FFF711FB0646022393FA54
:10437000A3F2226893FAA3F3B3FA83F303F01F03C3
:1043800022FA03F3DF0705D5FFF700FB801B0228A5
:10439000ECD96AE72B681C0746D5AA693C4C012377
:1043A0003C4912B393FAA3F2B2FA82F241F82230F6
:1043B000FFF7ECFA0646022393FAA3F293FAA3F26C
:1043C000626A93FAA3F3B3FA83F303F01F0322FAAA
:1043D00003F3D80705D4FFF7D9FA801B0228EAD9DE
:1043E00043E70120FFF7D8FA1EE093FAA3F3B3FAEC
:1043F00083F341F82320FFF7C9FA0646022393FA14
:10440000A3F293FAA3F2626A93FAA3F3B3FA83F3E3
:1044100003F01F0322FA03F3D90705D5FFF7B6FA15
:10442000801B0228EAD920E72B685A0704D4EA69DE
:10443000002A40F08680DEE0154C174AE36943F01D
:104440008053E361E36903F080530193019B136898
:1044500043F480731360FFF799FA06460E4B1B680E
:10446000DB0505D4FFF792FA801B6428F6D9FCE639
:10447000EB68012B18D08BB9236A23F00103236268
:10448000236A23F004032362FFF780FA064640E024
:10449000001002408004424200700040052B236A55
:1044A00006D143F004032362236A43F0010305E0CD
:1044B00023F001032362236A23F004032362FFF73E
:1044C00065FA0646022393FAA3F293FAA3F2B2FA2C
:1044D00082F242F0400252099A420CBF226A626A9A
:1044E00093FAA3F3B3FA83F303F01F03DA40D70779
:1044F0009DD4FFF74BFA41F28833801B9842E1D9F3
:10450000B3E6FFF743FA41F28833801B98423FF647
:10451000ACAE022393FAA3F293FAA3F2B2FA82F2B8
:1045200042F0400252099A420CBF226A626A93FA30
:10453000A3F3B3FA83F303F01F03DA40D007E0D408
:1045400075E7464C636803F00C03082B3FF451AE4B
:10455000022A4FF080735CD193FAA3F3B3FA83F38A
:104560009B0003F1844303F5840300221A60FFF7E4
:104570000DFA06464FF0007393FAA3F2374F226804
:1045800093FAA3F3B3FA83F303F01F0322FA03F3BE
:10459000D90732D42E6AB6F5803F01BF796821F47D
:1045A0000030A968014308BF796063686A6A23F430
:1045B00074133243134363604FF0807393FAA3F391
:1045C000B3FA83F39B0003F1844303F584030122D0
:1045D0001A60FFF7DBF905464FF0007393FAA3F278
:1045E000226893FAA3F3B3FA83F303F01F0322FACA
:1045F00003F3DA0707D500202EE0FFF7C7F9801B89
:104600000228B7D931E6FFF7C1F9401B0228E3D9E8
:104610002BE693FAA3F3B3FA83F39B0003F18443ED
:1046200003F5840300221A60FFF7B0F905464FF046
:10463000007393FAA3F2226893FAA3F3B3FA83F315
:1046400003F01F0322FA03F3DB07D4D5FFF79EF92B
:10465000401B0228EBD908E603B0F0BD0010024071
:104660001F4B70B503F110052E4686B002AC2246F2
:1046700018685968083303C2AB421446F7D133882F
:104680001848ADF80430416801F00C03082B23D121
:104690004FF4701292FAA2F2B2FA82F201F470139D
:1046A000D34006AA134413F8102CCB0311D543684A
:1046B0004FF4003191FAA1F1B1FA81F103F4003322
:1046C000CB4006A90B4413F8140C074BB3FBF0F0D6
:1046D00000E00648504300E0034806B070BD00BF4C
:1046E000CE7900080010024000127A0000093D0057
:1046F000544AF8B51368064603F0070399420D467D
:104700000AD831688C0713D54F48436823F0F0026C
:10471000B368134343600BE0136823F007030B43B4
:104720001360136803F007038B42EAD00120F8BD41
:10473000C80706D4434A136803F007039D424DD3CC
:1047400056E07268404C012A02D14FF4003304E075
:10475000022A0CBF4FF00073022393FAA3F12168E1
:1047600093FAA3F3B3FA83F303F01F0321FA03F3DD
:10477000D907DBD5636823F003031A436260FFF7B0
:1047800005F973680746012B0DD1636803F00C032C
:10479000042BCFD0FFF7FAF841F28833C01B9842C0
:1047A000F3D90320F8BD022B13D1636803F00C0387
:1047B000082BBFD0FFF7EAF841F28833C01B9842BC
:1047C000F3D9EEE7FFF7E2F841F28833C01B9842D5
:1047D000E7D8636813F00C0FF4D1ABE7136823F04C
:1047E00007032B431360136803F00703AB429DD10B
:1047F0003168154C11F0040F05D0636823F4E062B2
:10480000F368134363600B0741BF6368326923F4A5
:10481000605343EAC20348BF6360FFF721FF636848
:10482000F02292FAA2F2B2FA82F203F0F003D3403D
:10483000064AD35CD840064B18600F20FEF732FAC8
:104840000020F8BD0020024000100240F27900086C
:1048500050010020084B4FF4E0625B6892FAA2F22C
:10486000B2FA82F203F4E063D340044AD35C044A10
:104870001068D840704700BF00100240027A00085C
:1048800050010020084B4FF460525B6892FAA2F28C
:10489000B2FA82F203F46053D340044AD35C044A70
:1048A0001068D840704700BF00100240027A00082C
:1048B000500100200368F7B5DC07054667D5404C7A
:1048C000404AE36943F08053E361E36903F08053B6
:1048D0000193019B136843F480731360FFF756F84C
:1048E0000646384B1B68D80506D4FFF74FF8801BE7
:1048F0006428F6D9032060E0236A314813F440733A
:1049000006D1236A23F440726B68134323623EE0AE
:104910006A6802F440729342F3D0016A4FF4803324
:1049200021F4407793FAA3F2B2FA82F2264E4FF0C6
:10493000010E46F822E093FAA3F3B3FA83F30022C0
:10494000C90746F823200762DBD5FFF71FF80646A4
:10495000022393FAA3F293FAA3F2B2FA82F242F09C
:10496000400252099A420CBF226A626A93FAA3F388
:10497000B3FA83F303F01F03DA40D207C1D4FFF781
:1049800005F841F28833801B9842E1D9B2E72868E4
:10499000830741BF0A494B6823F44042AB6844BFD8
:1049A00013434B6010F0100007D0054900204B68FE
:1049B00023F48002EB6813434B6003B0F0BD00BFEB
:1049C0000010024000700040000442423F4BF0B52E
:1049D00003F110060446374687B002AD2A46186830
:1049E0005968083303C2B3421546F7D13B88022CFD
:1049F000ADF8043051D0102C02D0012C62D12EE041
:104A000033494C68086810F080705CD04FF4701225
:104A100092FAA2F2B2FA82F204F47013D34006AA18
:104A20001344E20313F8103C11D54A684FF40030E8
:104A300090FAA0F0B0FA80F002F40032C24006A86A
:104A4000024412F8140C234AB2FBF0F000E02248B2
:104A500058434B685B0236D4400003232CE040F2FD
:104A600002311B4A136A1940B1F5817F27D003F444
:104A70004073B3F5007F05D1536A49F6404013F007
:104A8000020F07E0B3F5407F1CD14FF224401368BA
:104A900013F4003F08BF002015E0FFF7F3FE0C4BB6
:104AA0004FF480425B6892FAA2F2B2FA82F203F407
:104AB0004043D34001335B00B0FBF3F003E04FF41D
:104AC000004000E0002007B0F0BD00BFE079000822
:104AD0000010024000127A0000093D00036A70B520
:104AE00023F001030362036A426884690D6824F0BD
:104AF0007304254323F002048B6823430A4CA0422D
:104B00000BD1CC6823F0080323438E694C6922F44F
:104B10004072344323F00403224342604A688561B3
:104B20004263036270BD00BF002C0140036A30B5D0
:104B300023F480730362036A4268C4690D6824F039
:104B400073042C438D6823F4007343EA05230C4D52
:104B5000A8420ED1CD6823F4006343EA05234D69D2
:104B600022F4405242EA05128D6923F4806342EA3E
:104B7000051242604A68C461C263036230BD00BF6F
:104B8000002C0140036A30B523F480530362036AAA
:104B90004468C2690D6822F4E64242EA05228D6843
:104BA00023F4005343EA0533064DA84202BF4D6982
:104BB00024F4804444EA85144460C2614A68026473
:104BC000036230BD002C014070470268022380F868
:104BD0003930136843F001031360012380F8393042
:104BE0000020704770470000184A036890420AD0BE
:104BF000B0F1804F07D0A2F59432904203D002F575
:104C00008062904215D14A6823F0700313430F4A23
:104C100090420AD0B0F1804F07D0A2F59432904272
:104C200003D002F58062904203D1CA6823F4407336
:104C3000134303608B68C3620B688362034B984223
:104C400004BF0B690363012343617047002C0140DB
:104C500010B50446A0B190F8393003F0FF021BB93B
:104C600080F83820FFF7B0FF022384F8393020683D
:104C7000211DFFF7B9FF012384F83930002010BD52
:104C8000012010BD10B50446A0B190F8393003F0F2
:104C9000FF021BB980F83820FFF7A4FF022384F835
:104CA00039302068211DFFF79FFF012384F8393038
:104CB000002010BD012010BD036A30B523F01003A1
:104CC0000362036A426884690D6824F4E64444EA96
:104CD00005248D6823F0200343EA05130B4DA842F9
:104CE0000ED1CD6823F0800343EA05134D6922F409
:104CF000406242EA85028D6923F0400342EA850260
:104D000042604A6884618263036230BD002C0140C6
:104D100038B590F838300446012B0D464FF00200AC
:104D200058D0012384F8383084F839000C2A4BD845
:104D3000DFE802F0074A4A4A174A4A4A294A4A4AD9
:104D400039002068FFF7CAFE23689A6942F008021A
:104D50009A619A6922F004029A6199692A690A4360
:104D60000FE02068FFF7A8FF236829699A6942F4D9
:104D700000629A619A6922F480629A619A6942EAB1
:104D800001229A6120E02068FFF7D0FE2368DA69EB
:104D900042F00802DA61DA6922F00402DA61D969C4
:104DA0002A690A430FE02068FFF7ECFE23682969AF
:104DB000DA6942F40062DA61DA6922F48062DA6167
:104DC000DA6942EA0122DA610123002084F83930ED
:104DD00084F8380038BD10B50123046A8B4024EAFA
:104DE00003030362036A8A401343036210BD000099
:104DF00010B5044601220068FFF7EDFF2368064A5C
:104E00000020934202BF5A6C42F400425A641A686E
:104E100042F001021A6010BD002C014010B504469A
:104E200001220068FFF7D7FF2368064A002093425B
:104E300002BF5A6C42F400425A641A6842F00102FE
:104E40001A6010BD002C014010B50423046A8B4089
:104E500024EA03030362036A8A401343036210BD1A
:104E600010B5044604220068FFF7EEFF2368002017
:104E70005A6C42F400425A641A6842F001021A6005
:104E800010BD00002DE9F047056801692B698046D7
:104E900023F44052C368192413432B618368EA68E2
:104EA00019434369194322F4B05323F00C030B4315
:104EB000EB606B6923F44072836913436B613D4B74
:104EC0009D4231D1FFF7DEFC6043D8F804604FF01B
:104ED0006409B600B0FBF6F6FFF7D4FC6043D8F8DF
:104EE0000430B6FBF9F69B00B0FBF3F7FFF7CAFC02
:104EF0006043D8F8043036019B00B0FBF3F0B0FB00
:104F0000F9F009FB10731B013233B3FBF9F303F023
:104F1000F007FFF7B7FC6043D8F804209200B0FB1D
:104F2000F2FAFFF7AFFC30E0FFF794FC6043D8F8EB
:104F300004604FF06409B600B0FBF6F6FFF78AFC98
:104F40006043D8F80430B6FBF9F69B00B0FBF3F7EA
:104F5000FFF780FC6043D8F8043036019B00B0FBBB
:104F6000F3F0B0FBF9F009FB10731B013233B3FB14
:104F7000F9F303F0F007FFF76DFC6043D8F8042065
:104F80009200B0FBF2FAFFF765FC4443D8F8040046
:104F90008000B4FBF0F0B0FBF9F009FB10A21201A5
:104FA0003232B2FBF9F202F00F02BB183344AB60AD
:104FB000BDE8F08700380140704710B5044630B3B3
:104FC00090F8393003F0FF021BB980F83820FFF762
:104FD000F3FF2268022384F83930D368204623F493
:104FE0000053D360FFF74EFF236800201A6922F4B4
:104FF00090421A615A6922F02A025A61DA6842F430
:105000000052DA600123E06384F8393010BD0120DA
:1050100010BD0000114A124B516801F00C01042927
:1050200001D0082901D00F490EE051685068C1F342
:105030008341C00301F1020102D55068800301D50C
:10504000094800E007484143196052680749C2F324
:105050000312895C1A68CA401A6070470010024047
:105060005001002000127A0000093D00F27900088A
:1050700030B5012391B0069310B94FF4803301E0AD
:105080004FF4A02307934FF48033002402250E939E
:1050900006A84FF4E01308940D950F93FFF780F8DE
:1050A00078B90F23019303904FF48063059029464C
:1050B00001A802950493FFF71BFBB0FA80F04009AA
:1050C00000E0204611B030BD30B5032391B0069307
:1050D00001230A93102300240B9302254FF460133D
:1050E00006A807940D950E940F93FFF759F878B919
:1050F0000F23019303904FF480630590294601A884
:1051000002950493FFF7F4FAB0FA80F0400900E04A
:10511000204611B030BD08B50120FFF7A9FF30B916
:10512000FFF7A6FF18B9FFF7CFFF00B9FEE708BDEC
:1051300010B5174C236843F0010323606268154BD8
:105140001340636023684FF0006223F0847323F4FC
:1051500080332360236823F480232360636823F46F
:10516000FE0363604FF41F03A3600B4B9A600B4B6D
:105170000B4A1A60FEF7F0FBFFF7CDFF236943F0FF
:1051800004032361236923F00403236110BD00BFDE
:10519000001002400000FFF800ED00E05001002088
:1051A00000127A00044B054A13605863DA6842F033
:1051B0000202DA60704700BF00080040C8130020F8
:1051C000054B186830B901221A60044A044B1A6072
:1051D000FDF768BD704700BF2013002000080040A5
:1051E000C81300200B4B0C4A10B513600B4A1C4629
:1051F00012680AB9FFF7E4FF094A0023094913704E
:10520000636A08681278012A0ABF074B03EB004063
:10521000186810BD00080040C813002020130020AB
:1052200004140020241300201813002038B504466D
:10523000FFF7D8FF144B201A5D6A0028ADB203DCDB
:10524000BDE8384000F046BD104B114C021480B24E
:105250001A6020802288C5F57F4392B2FF339A42BC
:1052600007DC2088284480B2FFF79CFF00232380BE
:1052700038BD4FF6FF70FFF795FF208880B20130F0
:10528000284480B2208038BD000800402813002048
:105290001C130020034B044A1360DA6822F0020258
:1052A000DA60704700080040C8130020044B054A2C
:1052B00013601A69920744BF6FF002021A617047C7
:1052C00000080040C81300207047704770B50446BE
:1052D0000546064B00F14006036055F8040F08B17F
:1052E000FEF744F9B542F8D1204670BD187A00089F
:1052F00010B50446FFF7EAFF2046FEF737F92046CF
:1053000010BD00002DE9F0410546A84688B0ADF873
:105310000430BDF938302F48ADF80630BDF93C30C7
:105320000024ADF80830BDF940302860ADF80A30EF
:10533000BDF94430ADF80010ADF80C30BDF948307F
:10534000ADF80220ADF80E30BDF94C306C64ADF80C
:105350001030BDF95030ADF81230BDF95430ADF811
:105360001430BDF95830ADF81630BDF95C30ADF8E9
:105370001830BDF96030ADF81A30BDF96430ADF8C1
:105380001C30BDF96830ADF81E303DF914707B1C3F
:105390000CD01420FEF7DEF806460021142200F09F
:1053A000F8FE3046394600F088FB00E00026013761
:1053B0001FBF01236A6CA340134304F1010448F8A2
:1053C000046F18BF6B64102CDFD1284608B0BDE80D
:1053D000F08100BF187A000803682DE9F0419B684E
:1053E000064688469847012456F82450631E95B116
:1053F00048FA03F7B5F9003007F00107013304D18B
:1054000009480A493A2200F06BFC6B680FB1EA6860
:1054100000E02A6913600134112CE5D1336830466D
:10542000BDE8F041DB6818474E720008287A000892
:1054300070470000B0F9003010B50133044604D1C4
:1054400006480749482200F04BFCA3681A686368C5
:105450001A4214BF0120002010BD00BF4E72000888
:10546000287A00080430FFF7E5BF000010B50446B5
:10547000074B40F8183BFDF743FB04F13800FCF7FD
:105480005FF804F12800FCF75BF8204610BD00BF70
:10549000F87A000810B50446FFF7E8FF2046FEF74B
:1054A00065F8204610BD000038B504460D46FCF7EF
:1054B00047F82CB10DB9E56038BD024B2560E360BB
:1054C00038BD00BFF47000082DE9F04105460446E0
:1054D0000E46154B04F1180745F8043B28460021F9
:1054E000142200F056FEDFF84880102238460021D2
:1054F00000F04FFE00236363636404F1280041461B
:10550000FFF7D2FF04F138004146FFF7CDFF3146E7
:10551000064A23463846FDF769FA2846314600F028
:10552000B2FA2046BDE8F081F87A00080556000876
:10553000315400082DE9F0410D46064600F0F4FB19
:10554000EF6806F1280406F11808204677B1FBF74A
:10555000F7FF3CB1EB681BB15B68204629469847D2
:10556000EB687363012140460A4605E00549FFF7F1
:105570009BFF40463A460121FDF7F8FABDE8F041AD
:1055800000F0FCBB315400082DE9F0410D46064601
:1055900000F0CAFBEF6806F1380406F1180820464F
:1055A00077B1FBF7CDFF3CB1EB681BB15B682046E0
:1055B00029469847EB68736440460221012205E0C2
:1055C0000549FFF771FF40463A460221FDF7CEFA42
:1055D000BDE8F04100F0D2BB31540008C36810B5FB
:1055E00004462BB90548064940F2E71200F078FB63
:1055F000E3682046BDE810401B681847007B0008A0
:10560000057B0008012908B502D0022902D008BD97
:10561000283000E03830FFF7E1FF08BD70477047E1
:1056200010B5044600F098F8014B2046236010BDE9
:10563000587B000838B5044603681B689847204625
:1056400000F080F80546236820465B6898472846A6
:1056500038BD38B504460D4603681B68984729468F
:10566000204600F072F80546236820465B6898479C
:10567000284638BD70477047704710B588B1146828
:1056800053680CB9DA070CD513F0010F4FEA630326
:1056900018BFC258184418BF14592346BDE810401B
:1056A000184710BD70B509014418D4F8A43001F1B1
:1056B000980505442BB90648064940F2E71200F068
:1056C0000FFBD4F8A4302846BDE870401B6818478B
:1056D000007B0008057B000870B505460E460446B1
:1056E00055F84C3B1B68984728463146FEF772F840
:1056F0002368C4F8B8602046BDE870405B6818476E
:1057000038B5054655F84C3B04461B689847284673
:10571000FEF7C6F80546236820465B68984728468A
:1057200038BD38B5054655F84C3B04461B689847CC
:105730002846FEF7D5F80546236820465B6898475B
:10574000284638BD4C30FEF7B5B810B50C464C3085
:10575000FEF7D0F8204610BD2DE9F34790460246EB
:1057600004469A462B4B002542F8083B009502ABB5
:105770000195894613E90300274B82E80300236162
:1057800048F207036361254BE561A461226263620D
:10579000BFF36F8FBFF34F8F04F14C0604F19807EE
:1057A0006563656484F8485084F84950304629465A
:1057B0004C2200F0EEFCC4F8A450C4F8B450C4F875
:1057C000B8A03846FBF7BCFE2FB1154BC4F8983093
:1057D000144BC4F8A43004F1A8052846FBF7B0FE2A
:1057E0002DB10F4BC4F8A8300E4BC4F8B43042466C
:1057F00030464946FDF74AFF3046D4F8B810FDF769
:10580000E9FF304608492246FDF7E8FF204602B08E
:10581000BDE8F087707B000801A090E87B56000887
:1058200075560008F4700008A55600082DE9F041EF
:1058300007468846164657F84C3B05461B6898476E
:1058400000F072FAD8F80C3034019834ABB12C4423
:105850002046FBF775FE64B1D8F80C301BB15B68CD
:10586000204641469847D8F80C2005EB0613C3F8AC
:10587000A42038463146012211E005EB04084046D9
:10588000FBF75EFEB8F1000F06D00A4B0A4A2B5117
:1058900005EB0613C3F8A420384631460022FDF775
:1058A000A9FF00F06BFA2B682846BDE8F0415B6861
:1058B000184700BF75560008F4700008436A70B5B9
:1058C000044600F118052BB90548064940F2E712D5
:1058D00000F006FA636A2846BDE870401B68184766
:1058E000007B0008057B000870B5044643684169E9
:1058F00004F11805194400F063F9636A2BB90648EE
:10590000064940F2E71200F0EBF9636A2846BDE869
:1059100070401B68184700BF007B0008057B00082B
:1059200038B505460C4600F0FFF9284600F04EF960
:105930006C61286900F0C7F90119284600F040F9A8
:10594000BDE8384000F01ABA38B5044600F0ECF96A
:1059500004F11805204600F039F92846FBF7F0FD60
:105960000DB100236362BDE8384000F007BA10B5FE
:10597000044600F0D9F923682BB9E06800F0A3F9D8
:10598000012360602360BDE8104000F0F7B938B52E
:10599000054600F0C9F92C6824B1E86800F093F9D5
:1059A0006C68041B00F0EAF9204638BD10B50446C7
:1059B00000F0BAF92046FFF7EAFFA3681844002375
:1059C000A0602360BDE8104000F0D8B938B50546A6
:1059D00000F0AAF92846AC68FFF7D9FF044400F0AC
:1059E000CDF9204638BD08B5FFF7F0FF4FF47A73C4
:1059F00090FBF3F008BD10B5044600F095F9E0689F
:105A000000F061F900236060A360BDE8104000F081
:105A1000B5B9002310B5036043608360044600F00D
:105A200055F9E0602046FFF7E6FF204610BD000074
:105A300038B5B0F90030044601330D4604D10648AC
:105A400006493A2200F04CF963680DB1E26800E0C3
:105A50002269136038BD00BF4E720008287A000822
:105A600070B50E4604461546FCF738FF013609D0DE
:105A700020460021FCF74EFF20462946BDE8704035
:105A8000FCF744BF70BD0022FFF7EABF70B50E46B9
:105A900004461546FCF722FF01360DD02046294664
:105AA000FFF7C6FF20460121FCF734FF2046BDE882
:105AB00070400021FCF72ABF70BD0022FFF7E6BF4F
:105AC00010B50446013001D110BD0C31B1F90030E0
:105AD0005A1C0BD0A342F8D120468968FDF7D2F9B1
